:020000040800F2
:10000000000003205D1400082D1100083B110008BA
:1000100041110008471100084D11000800000000C0
:100020000000000000000000000000005311000864
:1000300061110008000000006F1100087D11000828
:10004000AD140008AD140008AD140008AD1400088C
:10005000AD140008AD140008AD140008AD1400087C
:10006000AD140008AD140008AD140008AD1400086C
:10007000AD140008AD140008AD140008AD1400085C
:10008000AD140008AD140008AD140008AD1400084C
:10009000AD140008AD140008AD1400088911000863
:1000A000AD140008AD140008AD140008AD1400082C
:1000B000AD140008AD140008AD140008AD1400081C
:1000C000AD140008AD140008AD140008AD1400080C
:1000D000AD140008AD140008AD140008AD140008FC
:1000E000AD140008AD140008AD140008AD140008EC
:1000F000AD140008AD140008AD140008AD140008DC
:10010000AD140008AD140008AD140008AD140008CB
:10011000AD140008AD140008AD140008AD140008BB
:10012000AD140008AD140008AD140008AD140008AB
:10013000AD140008AD140008AD140008AD1400089B
:10014000AD140008AD140008AD140008AD1400088B
:10015000AD140008AD140008AD140008AD1400087B
:10016000AD140008AD140008AD140008AD1400086B
:10017000AD140008AD140008AD1400080000000024
:10018000AD140008AD140008AD140008AD1400084B
:10019000AD140008AD140008AD140008AD1400083B
:0C01A00099110008AD110008C111000801
:1001B00010B5054C237833B9044B13B10448AFF3A1
:1001C00000800123237010BDF80000200000000013
:1001D000FCC6010808B5034B1BB103490348AFF344
:1001E000008008BD00000000FC000020FCC60108E3
:1001F00001F0FF01102A2BDB10F0070F08D010F8D8
:10020000013B013A8B422DD010F0070F42B3F6D1DB
:10021000F0B441EA012141EA014122F007047FF0F4
:1002200000070023F0E80256083C85EA010586EA4B
:10023000010685FA47F5A3FA87F586FA47F6A5FA87
:1002400087F68EB9EED1F0BC01F0FF0102F0070293
:1002500032B110F8013B013A83EA010313B1F8D13E
:100260000020704701387047002D06BF354603381F
:10027000073815F0010F07D1013015F4807F02BF58
:10028000013015F4C03F0130F0BC0138704700BFA9
:1002900053B94AB9002908BF00281CBF4FF0FF31ED
:1002A0004FF0FF3000F072B9ADF1080C6DE904CEEB
:1002B00000F006F8DDF804E0DDE9022304B0704741
:1002C0002DE9F047089E04468846002B4BD18A4210
:1002D000154667D9B2FA82F24AB1C2F1200701FA93
:1002E00002F320FA07F7954047EA030894404FEAE3
:1002F000154E230CB8FBFEF71FFA85FC0EFB178882
:1003000043EA084307FB0CF1994209D9EB1807F1BE
:10031000FF3080F01B81994240F21881023F2B444C
:100320005B1AA4B2B3FBFEF00EFB103344EA0344A5
:1003300000FB0CFCA44509D92C1900F1FF3380F017
:100340000781A44540F2048102382C4440EA07406A
:10035000A4EB0C0400271EB1D4400023C6E90043DF
:100360003946BDE8F0878B4209D9002E00F0EB80BA
:100370000027C6E9000138463946BDE8F087B3FAE0
:1003800083F7002F47D18B4202D3824200F2FA80DA
:10039000841A61EB030301209846002EE0D0C6E9E1
:1003A0000048DDE702B9FFDEB2FA82F2002A40F02F
:1003B0008F80491B4FEA154E1FFA85F80127B1FBC4
:1003C000FEFC230C0EFB1C1143EA014308FB0CF15D
:1003D000994207D9EB180CF1FF3002D2994200F292
:1003E000CD808446591AA3B2B1FBFEF00EFB101467
:1003F00043EA044408FB00F8A04507D92C1900F192
:10040000FF3302D2A04500F2B6801846A4EB0804E0
:1004100040EA0C409FE7C7F1200CBB4022FA0CFEDB
:100420004EEA030E01FA07F420FA0CF521FA0CF358
:100430004FEA1E482543B3FBF8F92C0C08FB19338F
:100440001FFA8EFA44EA034309FB0AF49C4202FABB
:1004500007F200FA07F10BD91EEB030309F1FF3095
:1004600080F087809C4240F28480A9F102097344A5
:100470001B1BADB2B3FBF8F008FB103345EA034495
:1004800000FB0AFAA24508D91EEB040400F1FF3371
:100490006BD2A24569D90238744440EA0940A0FBF6
:1004A0000289A4EB0A044C45C2464B4654D351D0B2
:1004B000002E69D0B1EB0A0564EB030404FA0CFCCE
:1004C000FD40FC404CEA0505C6E90054002747E71B
:1004D000C2F1200320FA03F7954001FA02F021FA55
:1004E00003F34FEA154E3843010CB3FBFEF71FFA36
:1004F00085F80EFB173341EA034107FB08F38B42F3
:1005000004FA02F407D9691807F1FF3C2FD28B4295
:100510002DD9023F2944CB1A81B2B3FBFEF00EFB6A
:10052000103341EA034100FB08F38B4207D96918F5
:1005300000F1FF3C17D28B4215D902382944C91A61
:1005400040EA07473BE73746304609E70746E7E614
:100550001846FBE64145ABD2B8EB020A69EB0E0246
:1005600001381346A4E76046E9E7184695E7674671
:10057000D1E781467CE702382C4447E7ACF1020C16
:100580002B442FE7384608E73746E9E6704700BFB7
:1005900080B500AF064B074A1A60054801F05DF9C7
:1005A0000346002B01D000F009FD00BF80BD00BF55
:1005B000F81600200030024080B485B000AF7860AB
:1005C0007B681B680B4A93420DD10023FB600A4BEA
:1005D0001B6B094A43F480531363074B1B6B03F4F3
:1005E0008053FB60FB6800BF1437BD465DF8047B99
:1005F000704700BF003002400038024080B500AFB5
:10060000154B164A1A60144B00225A60124B0222F4
:100610009A60114B0022DA600F4B00229A620E4B57
:100620000222DA620C4B00221A630B4B00225A633F
:10063000094801F02EF90346002B01D000F0BEFC62
:100640000121054801F0EEFB0346002B01D000F02C
:10065000B5FC00BF80BD00BF0017002000B0024005
:1006600080B584B000AF78607B681B680E4A934207
:1006700015D10023FB600D4B1B6B0C4A43F40003A8
:1006800013630A4B1B6B03F40003FB60FB6800223F
:1006900000215A2001F09DF85A2001F0B6F800BF61
:1006A0001037BD4680BD00BF00B002400038024098
:1006B00080B582B000AF78607B681B68074A9342C0
:1006C00008D1074B1B6B064A23F4000313635A201F
:1006D00001F0A9F800BF0837BD4680BD00B0024058
:1006E0000038024080B588B000AF3B1D00221A6080
:1006F0005A609A60DA601A615A619A611F4B204A07
:100700001A601E4B00225A601C4B01229A601B4B40
:100710000822DA60194B10221A61184B40225A61E4
:10072000164B4FF4C0729A61144B0022DA61134BDE
:100730004FF400621A62114B4FF480525A620F4B11
:1007400000229A6202237B600723BB600623FB60C2
:1007500006233B6105237B610223BB610223FB610E
:100760003B1D1946054804F00BF80346002B01D049
:1007700000F024FC00BF2037BD4680BD401700209C
:10078000400100A080B586B000AF3B1D00221A607A
:100790005A609A60DA601A61344B1B68002B60D192
:1007A000324B01221A6000233B60314B9B6B304A75
:1007B00043F0010393632E4B9B6B03F001033B60FB
:1007C0003B684FF63F037B600223BB600023FB6066
:1007D00003233B610C237B613B1D1946254801F037
:1007E0004FFC0D237B600223BB600023FB600323CF
:1007F0003B610C237B613B1D19461F4801F040FC07
:1008000048F237137B600223BB600023FB600323A5
:100810003B610C237B613B1D1946184801F030FCFD
:100820004FF680737B600223BB600023FB600323D1
:100830003B610C237B613B1D1946114801F020FCF4
:100840004CF203737B600223BB600023FB60032335
:100850003B610C237B613B1D19460A4801F010FCEB
:1008600000E000BF1837BD4680BD00BF1401002066
:100870000038024000140240000802400018024004
:1008800000100240000C024080B582B000AF7860DA
:10089000FFF778FF00BF0837BD4680BD80B58EB03A
:1008A00000AF07F1240300221A605A609A60DA60F0
:1008B0001A6100233B62734B1B6B724A43F01003B7
:1008C0001363704B1B6B03F010033B623B6A002306
:1008D000FB616C4B1B6B6B4A43F480731363694B76
:1008E0001B6B03F48073FB61FB690023BB61654BE9
:1008F0001B6B644A43F020031363624B1B6B03F0D2
:100900002003BB61BB6900237B615E4B1B6B5D4AAF
:1009100043F0800313635B4B1B6B03F080037B612D
:100920007B6900233B61574B1B6B564A43F0040322
:100930001363544B1B6B03F004033B613B690023BF
:10094000FB60504B1B6B4F4A43F0400313634D4B0E
:100950001B6B03F04003FB60FB680023BB60494B4B
:100960001B6B484A43F008031363464B1B6B03F0B1
:100970000803BB60BB6800237B60424B1B6B414A92
:1009800043F0010313633F4B1B6B03F001037B60D8
:100990007B6800233B603B4B1B6B3A4A43F00203EE
:1009A0001363384B1B6B03F002033B603B68002270
:1009B0004FF48471344801F025FD00224021334872
:1009C00001F020FD00222021314801F01BFD04230D
:1009D0007B620023BB620023FB6207F124031946FC
:1009E0002C4801F04DFB4FF484737B620123BB6202
:1009F0000023FB6200233B6307F1240319462248CE
:100A000001F03EFB40237B620123BB620023FB62BB
:100A100000233B6307F1240319461C4801F030FB17
:100A200080237B621C4BBB620123FB6207F1240322
:100A30001946164801F024FB08237B620023BB62A1
:100A40000023FB6207F124031946144801F018FB48
:100A500020237B620123BB620023FB6200233B63F4
:100A600007F1240319460A4801F00AFB002200217D
:100A7000172000F0AEFE172000F0C7FE00BF383789
:100A8000BD4680BD0038024000200240001C0240EC
:100A90000004024000100240000021100018024033
:100AA00080B58EB000AF3B1D3422002118461AF0ED
:100AB000A8FE3A4B3A4A1A60384B00225A60374B2C
:100AC00000229A60354B0022DA60344B00221A6112
:100AD000324B07225A61314B03229A612F4B0E226F
:100AE000DA612E4B05221A622C4B40F22E325A62EA
:100AF0002A4B40F2E5129A62284B4FF48062DA6288
:100B0000264B40F2FB121A63244B002283F8342058
:100B1000224B002283F83520204B002283F8362018
:100B20001E4801F0ADFC0346002B01D000F046FA50
:100B300000237B604FF44873BB600023FB604FF4DD
:100B4000F0733B6102237B61FF23BB610023FB61E8
:100B50004FF480633B6205237B620023BB624FF44A
:100B60004873FB624FF4F0733B63002387F8343023
:100B7000002387F83530FA2387F836303B1D0022F2
:100B80001946064801F004FE0346002B01D000F090
:100B900015FA00BF3837BD4680BD00BF741700206E
:100BA0000068014080B58CB000AF786007F11C038D
:100BB00000221A605A609A60DA601A617B681B68CA
:100BC000504A934240F09A800023BB614E4B5B6CCD
:100BD0004D4A43F0806353644B4B5B6C03F080637E
:100BE000BB61BB6900237B61474B1B6B464A43F4E7
:100BF00080731363444B1B6B03F480737B617B69CD
:100C000000233B61404B1B6B3F4A43F020031363BF
:100C10003D4B1B6B03F020033B613B690023FB60F2
:100C2000394B1B6B384A43F080031363364B1B6B05
:100C300003F08003FB60FB680023BB60324B1B6B3F
:100C4000314A43F0400313632F4B1B6B03F0400307
:100C5000BB60BB6840F2F763FB6102233B62002389
:100C60007B620023BB620E23FB6207F11C03194663
:100C7000264801F005FA4FF48063FB6102233B62D2
:100C800000237B620023BB620E23FB6207F11C037F
:100C900019461F4801F0F4F94FF47E43FB6102232B
:100CA0003B6200237B620023BB620E23FB6207F1E1
:100CB0001C031946174801F0E3F94FF40C63FB617C
:100CC00002233B6200237B620023BB620E23FB6294
:100CD00007F11C031946104801F0D2F90022002147
:100CE000582000F076FD582000F08FFD00220021F2
:100CF000592000F06EFD592000F087FD00BF30370D
:100D0000BD4680BD0068014000380240002002401E
:100D100000140240001C02400018024080B5ADF5EE
:100D2000CD5D84B000AF5B4B00221A7000F0C0FBB9
:100D300000F0BAF8FFF7B2FDFFF7D4FC642000F032
:100D400029FC012307F5CD521360102307F5CD527E
:100D500002F104021360022307F5CD5202F10802EA
:100D60001360002307F5CD5202F10C02136007F562
:100D7000CD5341F288321946474803F056FD6420AE
:100D800000F008FC022307F5CD521360102307F58D
:100D9000CD5202F104021360042307F5CD5202F193
:100DA00008021360002307F5CD5202F10C02136014
:100DB00007F5CD5341F288321946374803F035FD27
:100DC000642000F0E7FB032307F5CD5213601023E6
:100DD00007F5CD5202F104021360082307F5CD5246
:100DE00002F108021360002307F5CD5202F10C0254
:100DF000136007F5CD5341F288321946264803F0B7
:100E000014FD642000F0C6FB042307F5CD521360E7
:100E1000102307F5CD5202F104021360042307F5F5
:100E2000CD5202F1080213604FF4987307F5CD52CA
:100E300002F10C02136007F5CD5341F288321946D6
:100E4000154803F0F2FC642000F0A4FB124803F004
:100E5000CBFC642000F09EFB00F08EFAFFF798FBBD
:100E6000FFF71EFE00F0B2F805F01CF8FFF7C6FB16
:100E700005F003FA01222021084801F0C3FA41F2EB
:100E8000883306220649074803F047FD05F0FBF9C1
:100E9000FCE700BF1C18002040170020000402409F
:100EA00014C70108A418002080B5A0B000AF07F156
:100EB00050033022002118461AF0A3FC07F13C032E
:100EC00000221A605A609A60DA601A6107F10C0316
:100ED0003022002118461AF094FC0023BB60354BE9
:100EE0001B6C344A43F080531364324B1B6C03F089
:100EF0008053BB60BB6800237B602F4B1B682E4A6E
:100F000043F4404313602C4B1B6803F440437B6065
:100F10007B6801233B654FF480337B650223BB660E
:100F20004FF48003FB660F233B67D8237B670223C4
:100F3000BB670823FB6707F15003184601F086FEE4
:100F40000346002B01D000F039F801F02FFE0346D4
:100F5000002B01D000F032F80F23FB6302233B6427
:100F600000237B644FF4A053BB644FF48053FB64B5
:100F700007F13C030521184602F0D8F80346002B80
:100F800001D000F01BF80823FB603C23FB61022327
:100F90007B6200233B6307F10C03184602F092FAD0
:100FA0000346002B01D000F009F800BF8037BD4692
:100FB00080BD00BF003802400070004080B400AF28
:100FC00000BFBD465DF8047B7047000080B400AFF1
:100FD0000C4B0D4A1A600B4B00225A60094B002241
:100FE0009A60084B0022DA60064B00221A61054B1A
:100FF00000225A61034B00229A6100BFBD465DF892
:10100000047B704720180020002C014080B58AB076
:1010100000AF786007F1140300221A605A609A60EA
:10102000DA601A617B681B68284A93424AD1002320
:101030003B61274B5B6C264A43F400635364244BAB
:101040005B6C03F400633B613B690023FB60204B56
:101050001B6B1F4A43F0040313631D4B1B6B03F010
:101060000403FB60FB680023BB60194B1B6B184A31
:1010700043F008031363164B1B6B03F00803BB60BC
:10108000BB684FF488537B610223BB610023FB6183
:1010900003233B620C237B6207F1140319460D48BE
:1010A00000F0EEFF04237B610223BB610023FB61A0
:1010B00003233B620C237B6207F1140319460648A5
:1010C00000F0DEFF00BF2837BD4680BD002C014088
:1010D0000038024000080240000C024080B483B097
:1010E00000AF00237B60104B5B6C0F4A43F48043DE
:1010F00053640D4B5B6C03F480437B607B6800237F
:101100003B60094B1B6C084A43F080531364064B49
:101110001B6C03F080533B603B6800BF0C37BD463F
:101120005DF8047B704700BF0038024080B400AF18
:1011300000BFBD465DF8047B704780B400AFFEE79A
:1011400080B400AFFEE780B400AFFEE780B400AF2C
:10115000FEE780B400AF00BFBD465DF8047B70477A
:1011600080B400AF00BFBD465DF8047B704780B41B
:1011700000AF00BFBD465DF8047B704780B500AF8F
:1011800000F0E8F900BF80BD80B500AF802001F01D
:1011900053F900BF80BD000080B500AF024801F0E8
:1011A0003FFA00BF80BD00BF7417002080B500AFBC
:1011B000024801F035FA00BF80BD00BF741700205F
:1011C00080B500AF024800F01CFD00BF80BD00BF2D
:1011D0000017002080B400AF01231846BD465DF81B
:1011E000047B704780B582B000AF786039601AF038
:1011F000B1FA0246162313604FF0FF331846083742
:10120000BD4680BD80B582B000AF78604FF0FF3141
:101210007868FFF7E7FFFEE780B586B000AFF860BB
:10122000B9607A6000237B610AE0AFF30080014679
:10123000BB685A1CBA60CAB21A707B6901337B6101
:101240007A697B689A42F0DB7B6818461837BD469E
:1012500080BD80B586B000AFF860B9607A600023C9
:101260007B6109E0BB685A1CBA601B781846AFF373
:1012700000807B6901337B617A697B689A42F1DB8C
:101280007B6818461837BD4680BD80B483B000AF78
:1012900078604FF0FF3318460C37BD465DF8047B8D
:1012A000704780B483B000AF786039603B684FF41A
:1012B00000525A60002318460C37BD465DF8047B87
:1012C000704780B483B000AF7860012318460C37B4
:1012D000BD465DF8047B704780B485B000AFF86010
:1012E000B9607A60002318461437BD465DF8047B68
:1012F0007047000080B584B000AF7860114B1B6868
:10130000002B02D10F4B104A1A600E4B1B68FB607A
:101310000C4B1A687B6813446A46934207D91AF04B
:1013200019FA02460C2313604FF0FF3306E0054B19
:101330001A687B681344034A1360FB681846103729
:10134000BD4680BD18010020581D002080B400AFAC
:10135000084BD3F88830074A43F47003C2F888304A
:10136000044B4FF000629A6000BFBD465DF8047BFD
:10137000704700BF00ED00E080B500AF114B124A8E
:101380001A60104B4FF4E1325A600E4B00229A6003
:101390000C4B0022DA600B4B00221A61094B0C2225
:1013A0005A61084B00229A61064B0022DA61054817
:1013B00003F066FA0346002B01D0FFF7FFFD00BFE4
:1013C00080BD00BFA41800200010014080B58AB085
:1013D00000AF786007F1140300221A605A609A6027
:1013E000DA601A617B681B68194A93422CD100238A
:1013F0003B61184B5B6C174A43F010035364154B69
:101400005B6C03F010033B613B690023FB60114BF5
:101410001B6B104A43F0010313630E4B1B6B03F06D
:101420000103FB60FB684FF4C0637B610223BB6177
:101430000023FB6103233B6207237B6207F1140354
:101440001946054800F01CFE00BF2837BD4680BD88
:10145000001001400038024000000240DFF834D0A4
:10146000002103E00C4B5B58435004310B480C4BFC
:1014700042189A42F6D30B4A02E0002342F8043B9A
:10148000094B9A42F9D3FFF761FF1AF07BF9FFF796
:1014900045FC70470000032018A00508000000204C
:1014A000F8000020F8000020541D0020FEE7000096
:1014B00080B500AF0E4B1B680D4A43F400731360F8
:1014C0000B4B1B680A4A43F480631360084B1B688C
:1014D000074A43F480731360032000F06FF9002083
:1014E00000F008F8FFF7FAFD0023184680BD00BFA2
:1014F000003C024080B582B000AF7860124B1A68A1
:10150000124B1B7819464FF47A73B3FBF1F3B2FB1D
:10151000F3F3184600F095F90346002B01D00123A0
:101520000EE07B680F2B0AD8002279684FF0FF305D
:1015300000F04FF9064A7B681360002300E00123A6
:1015400018460837BD4680BD040000200C0000206E
:101550000800002080B400AF064B1B781A46064BEB
:101560001B681344044A136000BFBD465DF8047B4A
:10157000704700BF0C000020E418002080B400AFCA
:10158000034B1B681846BD465DF8047B704700BFDF
:10159000E418002080B584B000AF7860FFF7EEFF5C
:1015A000B8607B68FB60FB68B3F1FF3F05D0094B77
:1015B0001B781A46FB681344FB6000BFFFF7DEFF91
:1015C0000246BB68D31AFA689A42F7D800BF1037B0
:1015D000BD4680BD0C00002080B485B000AF7860AF
:1015E0007B6803F00703FB600C4BDB68BB60BA68E9
:1015F0004FF6FF031340BB60FB681A02BB6813433E
:1016000043F0BF6343F40033BB60044ABB68D3605C
:1016100000BF1437BD465DF8047B704700ED00E065
:1016200080B400AF044BDB681B0A03F007031846C5
:10163000BD465DF8047B704700ED00E080B483B0E8
:1016400000AF0346FB7197F90730002B0BDBFB79EA
:1016500003F01F02074997F907305B09012000FAE0
:1016600002F241F8232000BF0C37BD465DF8047B31
:10167000704700BF00E100E080B483B000AF0346D4
:10168000FB7197F90730002B10DBFB7903F01F0289
:10169000094997F907305B09012000FA02F220336B
:1016A00041F82320BFF34F8FBFF36F8F00BF0C377C
:1016B000BD465DF8047B704700E100E080B483B074
:1016C00000AF03463960FB7197F90730002B0ADB46
:1016D0003B68DAB20C4997F907301201D2B20B44D9
:1016E00083F800230AE03B68DAB20849FB7903F08B
:1016F0000F03043B1201D2B20B441A7600BF0C3721
:10170000BD465DF8047B704700E100E000ED00E0BD
:1017100080B489B000AFF860B9607A60FB6803F00C
:101720000703FB61FB69C3F10703042B28BF0423F4
:10173000BB61FB690433062B02D9FB69033B00E064
:1017400000237B614FF0FF32BB6902FA03F3DA43F7
:10175000BB681A407B699A404FF0FF317B6901FA00
:1017600003F3D9437B680B40134318462437BD4627
:101770005DF8047B7047000080B582B000AF7860F0
:101780007B68013BB3F1807F01D301230FE00A4A5C
:101790007B68013B53600F214FF0FF30FFF78EFF56
:1017A000054B00229A60044B07221A60002318465A
:1017B0000837BD4680BD00BF10E000E080B582B0B4
:1017C00000AF78607868FFF707FF00BF0837BD46B5
:1017D00080BD80B586B000AF0346B9607A60FB7308
:1017E00000237B61FFF71CFF78617A68B96878692C
:1017F000FFF78EFF024697F90F3011461846FFF7A4
:101800005DFF00BF1837BD4680BD80B582B000AF18
:101810000346FB7197F907301846FFF70FFF00BF2B
:101820000837BD4680BD80B582B000AF0346FB716E
:1018300097F907301846FFF71FFF00BF0837BD466E
:1018400080BD80B582B000AF78607868FFF794FF04
:10185000034618460837BD4680BD80B582B000AF4C
:1018600078607B68002B01D101230EE07B685B79F7
:10187000DBB2002B05D17B6800221A717868FEF775
:101880009BFE7B6801225A71002318460837BD462B
:1018900080BD80B582B000AF78607B68002B01D13D
:1018A00001233BE07B6893F83930DBB2002B06D193
:1018B0007B68002283F838207868FEF7D1FE7B68C9
:1018C000022283F839207B681B681B6823F44031AF
:1018D0007B685A687B681B680A431A607B681B68D0
:1018E0005B6B23F007017B689A687B681B680A437F
:1018F0005A637B681B681B6C23F47F5323F03F0300
:101900007A68D1687A6812680B4313647B68002296
:10191000DA637B68012283F83920002318460837F0
:10192000BD4680BD80B582B000AF78607B68002B7B
:1019300001D101235FE0324B1B6B03F40003002B4A
:101940002ED07B681B681B6803F00103012B07D1B5
:10195000786800F0C1F80346002B21D001234AE04B
:101960007B681B685B6A03F02003202B08D10021F1
:10197000786800F0F7F80346002B11D001233AE015
:101980007B681B68DB6903F02003202B08D1012151
:10199000786800F0E7F80346002B01D001232AE025
:1019A0007B681B6800221A607B681B683F229A6074
:1019B0007B681B6800221A617B681B6800229A61A1
:1019C0007B681B680022DA617B681B6800225A6210
:1019D0007B681B6800225A637868FEF769FE7B68A3
:1019E0000022DA637B68002283F839207B680022BA
:1019F00083F83820002318460837BD4680BD00BF55
:101A00000038024080B586B002AFF860B9607A60F5
:101A10003B60FB6893F83830012B01D1022320E0B2
:101A2000FB68012283F83820FB68022283F8392002
:101A3000BB6900933B687A68B968F86800F084FA7B
:101A4000FB681B681A68FB681B6842F40C521A603A
:101A5000FB681B681A68FB681B6842F001021A6089
:101A6000002318461037BD4680BD80B586B002AF52
:101A7000F860B9607A603B60FB6893F83830012BFE
:101A800001D1022324E0FB68012283F83820FB689F
:101A9000022283F83920FB681B687A685A61FB6967
:101AA0000093BB693A68B968F86800F04DFAFB68C2
:101AB0001B681A68FB681B6842F40C521A60FB68CA
:101AC0001B681A68FB681B6842F001021A60002359
:101AD00018461037BD4680BD80B584B000AF786031
:101AE0007B681B681B6823F005027B681B6842F05B
:101AF00004021A60FFF742FDF86017E0FFF73EFDB1
:101B00000246FB68D31AB3F57A7F0FD97B68DB6B8B
:101B100043F020027B68DA637B68032283F8392074
:101B20007B68002283F83820032317E07B681B685A
:101B30001B6803F00103002BE0D17B681B681A6867
:101B40007B681B6822F40C521A607B68012283F8C0
:101B500039207B68002283F838200023184610378C
:101B6000BD4680BD80B584B000AF786039607B68C9
:101B70001B682433FB607B681B681A687B681B68E2
:101B800042F004021A603B68012B03D17B681B689A
:101B90001C33FB60FFF7F2FCB86017E0FFF7EEFCC8
:101BA0000246BB68D31AB3F57A7F0FD97B68DB6B2B
:101BB00043F020027B68DA637B68032283F83920D4
:101BC0007B68002283F83820032316E0FB681B683B
:101BD00003F02003002BE1D17B681B681A687B6847
:101BE0001B6822F464521A607B68012283F8392052
:101BF0007B68002283F83820002318461037BD4642
:101C000080BD80B584B000AF78607B681B685B687E
:101C1000FB607B681B681B68BB60FB6803F001030B
:101C2000002B26D0BB6803F48073002B21D07B6887
:101C30001B681A687B681B6822F480721A607B68D4
:101C4000DB6B43F001027B68DA637B681B6801226F
:101C50009A607B68042283F839207B68002283F82D
:101C600038207B685B69002B03D07B685B697868F0
:101C70009847FB6803F02003002B26D0BB6803F4D1
:101C80000053002B21D07B681B681A687B681B6897
:101C900022F400521A607B681B6820229A607B68DD
:101CA000DB6B43F002027B68DA637B68042283F813
:101CB00039207B68002283F838207B685B69002B21
:101CC00003D07B685B6978689847FB6803F008037A
:101CD000002B26D0BB6803F40063002B21D07B6867
:101CE0001B681A687B681B6822F400621A607B68B4
:101CF0001B6808229A607B68DB6B43F004027B68F8
:101D0000DA637B68042283F839207B68002283F839
:101D100038207B685B69002B03D07B685B6978683F
:101D20009847FB6803F00403002B13D0BB6803F44F
:101D30008063002B0ED07B681B681A687B681B6869
:101D400022F480621A607B681B6804229A607868BB
:101D500000F053F8FB6803F00203002B24D0BB68AB
:101D600003F40073002B1FD07B681B681A687B6824
:101D70001B6822F400721A607B681B6802229A605A
:101D80007B68DA6B7B68DA637B68012283F8392031
:101D90007B68002283F838207B681B69002B03D006
:101DA0007B681B6978689847FB6803F01003002B79
:101DB0001FD0BB6803F48053002B1AD07B681B68CC
:101DC0001A687B681B6822F480521A607B681B6863
:101DD00010229A607B68DA6B7B68DA637B68012289
:101DE00083F839207B68002283F83820786800F077
:101DF0000EF800BF1037BD4680BD80B483B000AF81
:101E0000786000BF0C37BD465DF8047B704780B436
:101E100083B000AF786000BF0C37BD465DF8047B2F
:101E20007047000080B487B000AF786039607B688D
:101E30005B68B3F5403F7B6893F83830012B01D1E4
:101E4000022379E07B68012283F838207B68022234
:101E500083F839203B681B0118337A6813443B61CF
:101E60003B695A683B699B681B0413437B61354B94
:101E7000FB603B695B680A2B03D03B695B68092BFD
:101E800007D13B69DB6803F07F437A6913437B61C9
:101E900005E03B69DB681B067A6913437B613B689D
:101EA000002B20D17B681B685A6AFB68DB4302EA7F
:101EB00003017B681B687A690A435A627B681B6866
:101EC0003A6912689A613B695B680A2B03D03B69E7
:101ED0005B68092B27D13B69DA687B681B6822F0B5
:101EE0007F429A621FE07B681B68DA69FB68DB430C
:101EF00002EA03017B681B687A690A43DA617B683E
:101F00001B683A6912681A613B695B680A2B03D047
:101F10003B695B68092B06D13B69DA687B681B6803
:101F200022F07F421A627B68012283F839207B68A5
:101F3000002283F83820002318461C37BD465DF880
:101F4000047B70470F0003FF80B48BB000AFF860D4
:101F5000B9607A603B60FB681B685B6C03F04041D2
:101F60003B681A043B6B1A43FB681B680A435A64BC
:101F7000FB681B687A68DA63FB685B68B3F5403F0F
:101F800074D1BB6803F07F433B62BB6803F47F03FB
:101F9000FB61BB6803F47F43BB61BB68DBB27B6161
:101FA000FB689B68002B08D1BA69FB691A433B6A3E
:101FB00013437A6913437B6253E0FB689B68012BF0
:101FC00006D1BA69FB6913437A6913437B6248E01F
:101FD000FB689B68022B11D1FB69DB0CFB61BB69C1
:101FE0009B0ABB617B69DB087B61BB695A01FB69AA
:101FF000DB0213437A6913437B6232E0FB689B6820
:10200000032B17D13B6ADB0F3B62FB69DB0CFB61E7
:10201000BB69DB0ABB617B69DB087B61BB695A0179
:10202000FB699B021A433B6ADB0313437A69134340
:102030007B6216E03B6A1B0F3B62FB691B0DFB6179
:10204000BB691B0BBB617B691B097B61BB691A0107
:10205000FB691B021A433B6A1B0313437A69134350
:102060007B62FB681B687A6A9A6303E0FB681B6803
:10207000BA68DA6000BF2C37BD465DF8047B704754
:1020800080B489B000AF7860396000237B610023A1
:102090003B610023BB610023FB6177E10122FB6907
:1020A00002FA03F37B613B681B687A6913403B616A
:1020B0003A697B699A4240F066813B685B68012B14
:1020C0000BD03B685B68022B07D03B685B68112B29
:1020D00003D03B685B68122B30D17B689B68BB6187
:1020E000FB695B00032202FA03F3DB43BA69134086
:1020F000BB613B68DA68FB695B0002FA03F3BA690B
:102100001343BB617B68BA699A607B685B68BB619B
:102110000122FB6902FA03F3DB43BA691340BB6196
:102120003B685B681B0903F00102FB6902FA03F3D9
:10213000BA691343BB617B68BA695A607B68DB6824
:10214000BB61FB695B00032202FA03F3DB43BA695C
:102150001340BB613B689A68FB695B0002FA03F3BA
:10216000BA691343BB617B68BA69DA603B685B6834
:10217000022B03D03B685B68122B23D1FB69DA0882
:102180007B68083253F82230BB61FB6903F0070318
:102190009B000F2202FA03F3DB43BA691340BB61D1
:1021A0003B681A69FB6903F007039B0002FA03F31B
:1021B000BA691343BB61FB69DA087B680832B96905
:1021C00043F822107B681B68BB61FB695B0003223C
:1021D00002FA03F3DB43BA691340BB613B685B68F7
:1021E00003F00302FB695B0002FA03F3BA691343CD
:1021F000BB617B68BA691A603B685B6803F0805317
:10220000002B00F0C0800023FB60654B5B6C644AD0
:1022100043F480435364624B5B6C03F48043FB6084
:10222000FB68604AFB699B08023352F82330BB61AC
:10223000FB6903F003039B000F2202FA03F3DB4365
:10224000BA691340BB617B68574A934237D07B68B9
:10225000564A934231D07B68554A93422BD07B68D3
:10226000544A934225D07B68534A93421FD07B68DF
:10227000524A934219D07B68514A934213D07B68EB
:10228000504A93420DD07B684F4A934207D07B68F7
:102290004E4A934201D1092312E00A2310E0082399
:1022A0000EE007230CE006230AE0052308E00423E0
:1022B00006E0032304E0022302E0012300E0002300
:1022C000FA6902F0030292009340BA691343BB61BA
:1022D0003449FB699B080233BA6941F823203C4B1F
:1022E0001B68BB613B69DB43BA691340BB613B6858
:1022F0005B6803F48033002B03D0BA693B69134356
:10230000BB61334ABB691360314B5B68BB613B699E
:10231000DB43BA691340BB613B685B6803F400337D
:10232000002B03D0BA693B691343BB61284ABB69E0
:102330005360274B9B68BB613B69DB43BA69134021
:10234000BB613B685B6803F48013002B03D0BA6960
:102350003B691343BB611E4ABB6993601C4BDB683E
:10236000BB613B69DB43BA691340BB613B685B6897
:1023700003F40013002B03D0BA693B691343BB611C
:10238000134ABB69D360FB690133FB61FB690F2B07
:102390007FF684AE00BF2437BD465DF8047B7047EE
:1023A00000380240003801400000024000040240B2
:1023B00000080240000C02400010024000140240DD
:1023C00000180240001C024000200240002402408D
:1023D000003C014080B485B000AF78600B467B8044
:1023E0007B681A697B881340002B02D00123FB73A2
:1023F00001E00023FB73FB7B18461437BD465DF8F4
:10240000047B704780B483B000AF78600B467B805C
:1024100013467B707B78002B03D07A887B689A61A7
:1024200003E07B881A047B689A6100BF0C37BD46C5
:102430005DF8047B7047000080B582B000AF0346B2
:10244000FB80084B5A69FB881340002B06D0054AD5
:10245000FB885361FB88184600F006F800BF083778
:10246000BD4680BD003C014080B483B000AF034650
:10247000FB8000BF0C37BD465DF8047B7047000051
:1024800080B584B000AF78607B68002B01D1012358
:10249000BFE07B6893F8A130DBB2002B06D17B68EC
:1024A000002283F8A0207868FEF77CFB7B6802227C
:1024B00083F8A1207B681B689A697B681B6822F0FF
:1024C00070429A617B681B6899697B685A687B686F
:1024D0009B681A437B68DB681A437B681B691A4355
:1024E0007B681B680A439A617B681B6899687B68F4
:1024F0001A684A4B0B4093607B685B691B04FB6066
:102500007B681B6899687B689A69FB681A437B68DB
:102510001B680A439A607B681B68D9687B681A68E5
:102520003E4B0B40D3607B68DB691B04FB607B6820
:102530001B68D9687B681A6AFB681A437B681B684A
:102540000A43DA607B681B6819697B681A68334B39
:102550000B4013617B685B6A1B04FB607B681B6834
:1025600019697B689A6AFB681A437B681B680A438F
:102570001A617B681B6859697B681A68274B0B4096
:1025800053617B68DB6A1B04FB607B681B685969CD
:102590007B681A6BFB681A437B681B680A435A61A5
:1025A0007B6893F835301B02FB607B6893F836300C
:1025B0001B04BB607B681B68DA6A7B681B6802F0DF
:1025C0007F42DA627B681B68D96ABA68FB6813438A
:1025D0007A6892F834201A437B681B680A43DA62EF
:1025E0007B681B685A6B7B681B6842F006025A6363
:1025F0007B681B689A697B681B6842F001029A61DC
:102600007B680022C3F8A4207B68012283F8A12004
:10261000002318461037BD4680BD00BF00F800F00B
:1026200080B584B000AF78607B681B689B6BFB60F3
:102630007B681B685B6BBB60FB6803F00403002BCB
:1026400023D0BB6803F00403002B1ED07B681B68FB
:102650005A6B7B681B6822F004025A637B681B6814
:102660000422DA637B68D3F8A43043F001027B686C
:10267000C3F8A4207B68042283F8A1207B68002291
:1026800083F8A020786800F06FF8FB6803F002037D
:10269000002B23D0BB6803F00203002B1ED07B6805
:1026A0001B685A6B7B681B6822F002025A637B68C6
:1026B0001B680222DA637B68D3F8A43043F002027D
:1026C0007B68C3F8A4207B68042283F8A1207B6880
:1026D000002283F8A020786800F046F8FB6803F039
:1026E0000103002B1BD0BB6803F00103002B16D0A5
:1026F0007B681B685A6B7B681B6822F001025A6377
:102700007B681B680122DA637B68012283F8A120C1
:102710007B68002283F8A020786807F0F7F9FB684F
:1027200003F00803002B1BD0BB6803F00803002B49
:1027300016D07B681B685A6B7B681B6822F0080206
:102740005A637B681B680822DA637B68012283F87E
:10275000A1207B68002283F8A020786800F00EF8A2
:1027600000BF1037BD4680BD80B483B000AF786035
:1027700000BF0C37BD465DF8047B704780B483B062
:1027800000AF786000BF0C37BD465DF8047B704732
:10279000B0B584B000AFF860B9607A60FB6893F8B8
:1027A000A030012B01D102232CE0FB68012283F829
:1027B000A020FB68022283F8A120FA687B683421FC
:1027C00001FB03F3134403F13802BB6814461D46B2
:1027D0000FCD0FC40FCD0FC40FCD0FC42B682360D6
:1027E0007A68B968F86800F049F8FB681B6801224C
:1027F0005A62FB68012283F8A120FB68002283F85B
:10280000A020002318461037BD46B0BD80B483B069
:1028100000AF786039607B6893F8A030012B01D15C
:10282000022323E07B68012283F8A0207B68022238
:1028300083F8A1207B681B685A6B7B681B6822F0B9
:1028400001025A630C4A3B6813647B681B685A6B2D
:102850007B681B6842F001025A637B68012283F89F
:10286000A1207B68002283F8A020002318460C37A3
:10287000BD465DF8047B70470068014080B489B0B4
:1028800000AFF860B9607A60BB685A68FB681B6883
:10289000DB681B0CC3F30B0313441B04FB61FB68D5
:1028A0001B681A467B68DB01134484335B68FA6853
:1028B000126811467A68D2010A44843203F47043E4
:1028C0005360BB681A68FB681B68DB681B0CC3F3AA
:1028D0000B0313445A1CFB681B6819467B68DB0119
:1028E0000B4484331946FB6913434B60BB68DA68B9
:1028F000FB681B68DB68C3F30A0313441B04FB611A
:10290000FB681B681A467B68DB01134484339B68B1
:10291000FA68126811467A68D2010A44843203F4D4
:1029200070439360BB689A68FB681B68DB68C3F3FD
:102930000A0313445A1CFB681B6819467B68DB01B9
:102940000B4484331946FB6913438B60FB681B6897
:102950001A467B68DB01134484331B69FA681268EA
:1029600011467A68D2010A44843223F007031361C6
:10297000FB681B681A467B68DB01134484331A46E4
:10298000BB681B691361BB6893F831301B02FB61A4
:10299000BB6893F832301B04BB61BB689B691B06A4
:1029A0007B61FB681B681A467B68DB011344843338
:1029B0009B69FB681B681A467B68DB011344843300
:1029C0001A4600239361BB6893F830301A46FB69BE
:1029D0001A43BB691A43FB681B6819467B68DB0115
:1029E0000B44843319467B6913438B61FB681B6876
:1029F0001A467B68DB01134484335B69FA6812680A
:102A000011467A68D2010A44843223F0FF035361ED
:102A1000FB681B681A467B68DB01134484331A4643
:102A2000BB685B695361FB681B681A467B68DB0106
:102A300013448433DB69FA68126811467A68D2015C
:102A40000A44843223F4E06323F00703D361BB68B4
:102A5000DA69BB681B6AF968096808467968C901C0
:102A6000014484311343CB61FB681B681A467B68C1
:102A7000DB01134484339B6AFB681B681A467B683E
:102A8000DB01134484331A4600239362FB681B68FE
:102A90001A467B68DB01134484331A46BB685B6AC1
:102AA0009362BB681B69002B02D10423FB611BE00E
:102AB000BB681B69012B02D10323FB6114E0BB68D7
:102AC0001B69042B0BD0BB681B69022B07D0BB68AA
:102AD0001B69032B03D0BB681B69072B02D10223A0
:102AE000FB6101E00123FB61FB681B681A467B6800
:102AF000DB0113448433DB6AFA68126811467A6892
:102B0000D2010A44843203F0E023D362BB689B6A9B
:102B1000FA6902FB03F31A04BB685968BB681B68B7
:102B2000CB1AF96901FB03F30333F9680968084616
:102B30007968C901014484311343CB62FB681B6887
:102B40001A467B68DB01134484331B6BFA681268F6
:102B500011467A68D2010A44843223F4FF6323F0D9
:102B600007031363FB681B681A467B68DB01134489
:102B700084331A46BB68DB6A1363FB681B681A461A
:102B80007B68DB01134484331B68FA6812681146C2
:102B90007A68D2010A44843243F00103136000BF13
:102BA0002437BD465DF8047B7047000080B582B0D5
:102BB00000AF00237B6000233B60204B1B6C1F4A4F
:102BC00043F0805313641D4B1B6C03F080533B6038
:102BD0003B681B4B01221A60FEF7D0FC786009E0CD
:102BE000FEF7CCFC02467B68D31AB3F57A7F01D995
:102BF00003231FE0134B5B6803F48033B3F5803F7E
:102C0000EED1114B01221A60FEF7B8FC786009E0A2
:102C1000FEF7B4FC02467B68D31AB3F57A7F01D97C
:102C2000032307E0074B5B6803F40033B3F5003F71
:102C3000EED1002318460837BD4680BD003802405B
:102C400040000E420070004044000E4280B586B045
:102C500000AF78607B68002B01D101235BE27B68C9
:102C60001B6803F00103002B75D0A34B9B6803F096
:102C70000C03042B0CD0A04B9B6803F00C03082B17
:102C800012D19D4B5B6803F48003B3F5800F0BD129
:102C9000994B1B6803F40033002B5BD07B685B68A7
:102CA000002B57D1012336E27B685B68B3F5803F88
:102CB00006D1914B1B68904A43F4803313601DE0AA
:102CC0007B685B68B3F5A02F0CD18B4B1B688A4ADD
:102CD00043F480231360884B1B68874A43F4803396
:102CE00013600BE0844B1B68834A23F4803313602A
:102CF000814B1B68804A23F4802313607B685B68E8
:102D0000002B13D0FEF73AFC386108E0FEF736FCE2
:102D100002463B69D31A642B01D90323FBE1764BAE
:102D20001B6803F40033002BF0D014E0FEF726FC00
:102D3000386108E0FEF722FC02463B69D31A642B97
:102D400001D90323E7E16C4B1B6803F40033002B2C
:102D5000F0D100E000BF7B681B6803F00203002B8A
:102D600063D0654B9B6803F00C03002B0BD0624BC8
:102D70009B6803F00C03082B1CD15F4B5B6803F4CA
:102D80008003002B16D15C4B1B6803F00203002B61
:102D900005D07B68DB68012B01D00123BBE1564BDA
:102DA0001B6823F0F8027B681B69DB005249134360
:102DB0000B603AE07B68DB68002B20D04F4B012290
:102DC0001A60FEF7DBFB386108E0FEF7D7FB02462E
:102DD0003B69D31A022B01D903239CE1464B1B68A4
:102DE00003F00203002BF0D0434B1B6823F0F802E2
:102DF0007B681B69DB00404913430B6015E03F4BC8
:102E000000221A60FEF7BAFB386108E0FEF7B6FB55
:102E100002463B69D31A022B01D903237BE1364BCF
:102E20001B6803F00203002BF0D17B681B6803F0E2
:102E30000803002B30D07B685B69002B16D0304B29
:102E400001221A60FEF79AFB386108E0FEF796FB54
:102E500002463B69D31A022B01D903235BE1264BBF
:102E60005B6F03F00203002BF0D015E0244B00222F
:102E70001A60FEF783FB386108E0FEF77FFB02462D
:102E80003B69D31A022B01D9032344E11A4B5B6F30
:102E900003F00203002BF0D17B681B6803F00403EE
:102EA000002B00F0A0800023FB75134B1B6C03F07C
:102EB0008053002B0FD10023BB600F4B1B6C0E4ABD
:102EC00043F0805313640C4B1B6C03F08053BB60C6
:102ED000BB680123FB750B4B1B6803F48073002B4D
:102EE00021D1084B1B68074A43F480731360FEF737
:102EF00045FB386111E000BF003802400000474246
:102F0000800E474200700040FEF738FB02463B69E6
:102F1000D31A022B01D90323FDE0814B1B6803F474
:102F20008073002BF0D07B689B68012B06D17D4B12
:102F30001B6F7C4A43F0010313671CE07B689B68AE
:102F4000052B0CD1774B1B6F764A43F004031367B4
:102F5000744B1B6F734A43F0010313670BE0714B13
:102F60001B6F704A23F0010313676E4B1B6F6D4A92
:102F700023F0040313677B689B68002B15D0FEF7D2
:102F8000FDFA38610AE0FEF7F9FA02463B69D31A06
:102F900041F28832934201D90323BCE0614B1B6F9D
:102FA00003F00203002BEED014E0FEF7E7FA3861DD
:102FB0000AE0FEF7E3FA02463B69D31A41F288328F
:102FC000934201D90323A6E0564B1B6F03F0020383
:102FD000002BEED1FB7D012B05D1524B1B6C514ACE
:102FE00023F0805313647B689B69002B00F0928070
:102FF0004C4B9B6803F00C03082B5CD07B689B69EF
:10300000022B41D1484B00221A60FEF7B7FA386113
:1030100008E0FEF7B3FA02463B69D31A022B01D946
:10302000032378E03F4B1B6803F00073002BF0D1C3
:103030007B68DA697B681B6A1A437B685B6A9B0161
:103040001A437B689B6A5B08013B1B041A437B683D
:10305000DB6A1B06334913434B60334B01221A6072
:10306000FEF78CFA386108E0FEF788FA02463B6901
:10307000D31A022B01D903234DE02A4B1B6803F01E
:103080000073002BF0D045E0274B00221A60FEF7BA
:1030900075FA386108E0FEF771FA02463B69D31A07
:1030A000022B01D9032336E01E4B1B6803F000738B
:1030B000002BF0D12EE07B689B69012B01D101230D
:1030C00029E0184B5B68FB60FB6803F480027B68B7
:1030D000DB699A421CD1FB6803F03F027B681B6AE4
:1030E0009A4215D1FA6847F6C07313407A68526A5B
:1030F00093420DD1FB6803F440327B689B6A9A428D
:1031000006D1FB6803F070627B68DB6A9A4201D0EB
:10311000012300E0002318461837BD4680BD00BFDC
:1031200000700040003802406000474280B584B023
:1031300000AF786039607B68002B01D10123CCE0BF
:10314000684B1B6803F00F033A689A420CD9654B31
:103150003A68D2B21A70634B1B6803F00F033A68E7
:103160009A4201D00123B8E07B681B6803F0020398
:10317000002B20D07B681B6803F00403002B05D0D4
:10318000594B9B68584A43F4E05393607B681B6833
:1031900003F00803002B05D0534B9B68524A43F4BD
:1031A00060439360504B9B6823F0F0027B689B6800
:1031B0004D4913438B607B681B6803F00103002BB0
:1031C00044D07B685B68012B07D1474B1B6803F435
:1031D0000033002B19D101237FE07B685B68022B51
:1031E00003D07B685B68032B07D13F4B1B6803F060
:1031F0000073002B09D101236FE03B4B1B6803F0E8
:103200000203002B01D1012367E0374B9B6823F0B9
:1032100003027B685B68344913438B60FEF7AEF9A9
:10322000F8600AE0FEF7AAF90246FB68D31A41F2F9
:103230008832934201D903234FE02B4B9B6803F064
:103240000C027B685B689B009A42EBD1254B1B68A4
:1032500003F00F033A689A420CD2224B3A68D2B27A
:103260001A70204B1B6803F00F033A689A4201D092
:10327000012332E07B681B6803F00403002B08D0B5
:10328000194B9B6823F4E0527B68DB6816491343B3
:103290008B607B681B6803F00803002B09D0124B7E
:1032A0009B6823F460427B681B69DB000E49134373
:1032B0008B6000F021F801460B4B9B681B0903F063
:1032C0000F030A4AD35C21FA03F3094A1360094B3E
:1032D0001B681846FEF70EF9002318461037BD4646
:1032E00080BD00BF003C024000380240D0CA010847
:1032F0000400002008000020F0B585B000AF0023D6
:103300007B600023FB6000233B600023BB60504BCD
:103310009B6803F00C03042B07D0082B08D0002B6C
:1033200040F08D804B4BBB608CE04B4BBB6089E029
:10333000474B5B6803F03F037B60454B5B6803F4DE
:103340008003002B23D0424B5B689B094FF00004A5
:1033500040F2FF114FF0000203EA010504EA020601
:103360003D4A02FB06F1002202FB05F20A443A49FB
:10337000A5FB0101531819467B684FF000041A465B
:103380002346FCF785FF03460C46FB6049E0304BC3
:103390005B689B094FF0000440F2FF114FF0000200
:1033A00003EA010504EA0206294632464FF000030B
:1033B0004FF00004540144EAD1644B0119462246FF
:1033C000491B62EB06024FF000034FF0000494012A
:1033D00044EA91648B015B1A64EB02044FF0000134
:1033E0004FF00002E20042EA5372D9000B46144645
:1033F0005B1944EB06044FF000014FF00002A202FB
:1034000042EA935299020B461446184621467B68BD
:103410004FF000041A462346FCF73AFF03460C46D9
:10342000FB600B4B5B681B0C03F0030301335B0079
:103430003B60FA683B68B2FBF3F3BB6002E0054B0C
:10344000BB6000BFBB6818461437BD46F0BD00BF67
:10345000003802400024F40040787D0180B400AFC1
:10346000034B1B681846BD465DF8047B704700BFE0
:103470000400002080B500AFFFF7F0FF0146054BC8
:103480009B689B0A03F00703034AD35C21FA03F30A
:10349000184680BD00380240E0CA010880B500AF80
:1034A000FFF7DCFF0146054B9B685B0B03F007034E
:1034B000034AD35C21FA03F3184680BD003802406A
:1034C000E0CA010880B586B000AF786000237B6158
:1034D00000233B617B681B6803F00103002B0BD1C9
:1034E0007B681B6803F00203002B05D17B681B6817
:1034F00003F04003002B75D0AD4B00221A60FEF79D
:103500003DF8786108E0FEF739F802467B69D31A86
:10351000022B01D903238BE1A64B1B6803F0006348
:10352000002BF0D17B681B6803F00103002B09D04E
:103530007B685B689A017B689B681B079D49134306
:10354000C1F884307B681B6803F00203002B1FD096
:10355000984BD3F884301B0F03F007033B617B6863
:103560005B689A017B68DB681B061A433B691B0793
:1035700090491343C1F884308E4BD3F88C3023F03C
:103580001F027B68DB69013B8A491343C1F88C3019
:103590007B681B6803F04003002B0DD07B685B68E1
:1035A0009A017B68DB681B061A437B689B681B07D4
:1035B00080491343C1F884307D4B01221A60FDF726
:1035C000DDFF786108E0FDF7D9FF02467B69D31A79
:1035D000022B01D903232BE1764B1B6803F0006318
:1035E000002BF0D07B681B6803F00403002B05D18F
:1035F0007B681B6803F00803002B79D06E4B002218
:103600001A60FDF7BBFF786108E0FDF7B7FF0246DF
:103610007B69D31A022B01D9032309E1654B1B688F
:1036200003F00053B3F1005FEFD07B681B6803F039
:103630000403002B20D05F4BD3F888301B0F03F01E
:1036400007033B617B681B699A017B685B691B060A
:103650001A433B691B0757491343C1F88830554B40
:10366000D3F88C3023F4F8527B681B6A013B1B02B1
:1036700050491343C1F88C307B681B6803F0080382
:10368000002B1ED04B4BD3F888301B0E03F00F03DA
:103690003B617B681B699A013B691B061A437B6887
:1036A0009B691B0743491343C1F88830414BD3F84A
:1036B0008C3023F440327B685B6A3E491343C1F887
:1036C0008C303D4B01221A60FDF758FF786108E00D
:1036D000FDF754FF02467B69D31A022B01D903235D
:1036E000A6E0344B1B6803F00053B3F1005FEFD149
:1036F0007B681B6803F02003002B00F08D80002303
:10370000FB602C4B1B6C2B4A43F080531364294BFA
:103710001B6C03F08053FB60FB68284B1B68274A37
:1037200043F480731360FDF729FF786108E0FDF72B
:1037300025FF02467B69D31A022B01D9032377E0C8
:103740001E4B1B6803F48073002BF0D0194B1B6FCA
:1037500003F440733B613B69002B39D07B689B6A63
:1037600003F440733A699A4232D0124B1B6F23F430
:1037700040733B61124B01221A60114B00221A6008
:103780000C4A3B6913670B4B1B6F03F00103012BC2
:103790001ED1FDF7F3FE786114E0FDF7EFFE02465F
:1037A0007B69D31A41F2883293420BD903233FE05D
:1037B00068004742003802407000474200700040F5
:1037C000400E47421C4B1B6F03F00203002BE4D05A
:1037D0007B689B6A03F44073B3F5407F0DD1164BB1
:1037E0009B6823F4F8127B689B6A23F0704323F4F0
:1037F0004073114913438B6005E00F4B9B680E4AE1
:1038000023F4F81393600C4B1A6F7B689B6AC3F325
:103810000B03094913430B677B681B6803F0100314
:10382000002B04D07B6893F82C20044B1A600023F3
:1038300018461837BD4680BD00380240E0114742A7
:1038400080B582B000AF78607B68002B01D1012386
:1038500022E07B6893F83430DBB2002B05D17B6823
:1038600000221A777868FDF7D1FB7B68032283F882
:103870003420786800F014F80346002B01D00123AF
:103880000AE07B6800229A637B6800221A637B68E7
:10389000012283F83420002318460837BD4680BD36
:1038A000B0B58EB004AF78600023BB600023FB602E
:1038B00000233B6100237B610023BB617623FB6116
:1038C0007B681D686C4607F1140393E8070084E8E1
:1038D000070007F108030ECB284601F0C1FD03469F
:1038E00087F8273097F82730002B01D0012331E0EB
:1038F0001A4B00221A607B681B68184601F0F9FD1C
:10390000164B01221A60786800F084FE38623B6A28
:10391000002B0BD07B68012283F834207B689A6BE4
:103920003B6A1A437B689A63012313E0786800F0CE
:10393000A3FD38623B6A002B0BD07B68012283F821
:1039400034207B689A6B3B6A1A437B689A63012335
:1039500000E0002318462837BD46B0BDA0802542B0
:1039600080B592B000AFF860B9607A603B60FDF757
:1039700005FE38637B68BB63BB687B63BB68002B59
:1039800007D1FB689B6B43F00062FB689A630123DD
:10399000D9E1FB6893F83430DBB2012B40F0CC81E5
:1039A000FB6800229A63BA6B3B681A44FB68DB6DC4
:1039B0009A4207D9FB689B6B43F00072FB689A63DD
:1039C0000123C0E1FB68032283F83420FB681B68F5
:1039D0000022DA62FB685B6C012B02D0BB6B5B02DE
:1039E000BB63FB681B684FF40071184601F014FEBE
:1039F00078647B6C002B0FD0FB681B689B4A9A6332
:103A0000FB689A6B7B6C1A43FB689A63FB68012224
:103A100083F83420012396E14FF0FF337B613B684C
:103A20005B02BB619023FB6102233B6200237B624C
:103A30000123BB62FB681B6807F11402114618469C
:103A400001F0BEFD3B68012B0AD9FB6802221A6314
:103A5000FB681B68B96B184601F022FE786409E028
:103A6000FB6801221A63FB681B68B96B184601F0FA
:103A7000F5FD78647B6C002B12D0FB681B687B4AD9
:103A80009A63FB689A6B7B6C1A43FB689A63FB68CA
:103A9000012283F83420FB6800221A63012352E1DB
:103AA000BB69FB6361E0FB681B685B6B03F400436D
:103AB000002B3CD0FB6B002B39D000233B6433E060
:103AC000FB681B68184601F0F6FCF862FB6ADAB284
:103AD0007B6B1A707B6B01337B63FB6B013BFB637E
:103AE000FB6A1B0ADAB27B6B1A707B6B01337B6358
:103AF000FB6B013BFB63FB6A1B0CDAB27B6B1A703E
:103B00007B6B01337B63FB6B013BFB63FB6A1B0E2F
:103B1000DAB27B6B1A707B6B01337B63FB6B013B0F
:103B2000FB633B6C01333B643B6C072BC8D9FDF74F
:103B300025FD02463B6BD31A3A6D9A4202D93B6D82
:103B4000002B12D1FB681B68484A9A63FB689B6B89
:103B500043F00042FB689A63FB68012283F834203B
:103B6000FB6800221A630323EDE0FB681B685A6BB5
:103B700040F22A331340002B95D0FB681B685B6B27
:103B800003F48073002B22D03B68012B1FD9FB6804
:103B90005B6C032B1BD0FB681B68184601F0E6FD2D
:103BA00078647B6C002B12D0FB681B682F4A9A63E9
:103BB000FB689A6B7B6C1A43FB689A63FB68012273
:103BC00083F83420FB6800221A630123BBE0FB6802
:103BD0001B685B6B03F00803002B12D0FB681B68AB
:103BE000224A9A63FB689B6B43F00802FB689A6366
:103BF000FB68012283F83420FB6800221A6301234A
:103C0000A1E0FB681B685B6B03F00203002B12D082
:103C1000FB681B68154A9A63FB689B6B43F00202C2
:103C2000FB689A63FB68012283F83420FB6800225A
:103C30001A63012387E0FB681B685B6B03F02003BA
:103C4000002B64D0FB681B68084A9A63FB689B6B77
:103C500043F02002FB689A63FB68012283F834205A
:103C6000FB6800221A6301236DE000BFFF054000DE
:103C7000FB681B68184601F01EFCF862FB6ADAB2AA
:103C80007B6B1A707B6B01337B63FB6B013BFB63CC
:103C9000FB6A1B0ADAB27B6B1A707B6B01337B63A6
:103CA000FB6B013BFB63FB6A1B0CDAB27B6B1A708C
:103CB0007B6B01337B63FB6B013BFB63FB6A1B0E7E
:103CC000DAB27B6B1A707B6B01337B63FB6B013B5E
:103CD000FB63FDF753FC02463B6BD31A3A6D9A42E5
:103CE00002D93B6D002B12D1FB681B68184A9A63FE
:103CF000FB689B6B43F00042FB689A63FB68012200
:103D000083F83420FB6800221A6301231BE0FB6860
:103D10001B685B6B03F40013002B02D0FB6B002BC2
:103D2000A6D1FB681B6840F23A529A63FB680122F5
:103D300083F83420002306E0FB689B6B43F00052BD
:103D4000FB689A63012318464837BD4680BD00BF13
:103D5000FF05400080B592B000AFF860B9607A60AE
:103D60003B60FDF70BFC38637B68BB63BB687B6320
:103D7000BB68002B07D1FB689B6B43F00062FB68BC
:103D80009A63012384E1FB6893F83430DBB2012BA2
:103D900040F07781FB6800229A63BA6B3B681A4453
:103DA000FB68DB6D9A4207D9FB689B6B43F000729E
:103DB000FB689A6301236BE1FB68032283F83420DC
:103DC000FB681B680022DA62FB685B6C012B02D087
:103DD000BB6B5B02BB63FB681B684FF4007118464A
:103DE00001F01AFC78647B6C002B0FD0FB681B6819
:103DF0009D4A9A63FB689A6B7B6C1A43FB689A63D3
:103E0000FB68012283F83420012341E14FF0FF33A6
:103E1000BB613B685B02FB6190233B6200237B62DA
:103E20000023BB620123FB62FB681B6807F11802D9
:103E30001146184601F0C4FB3B68012B0AD9FB6808
:103E400020221A63FB681B68B96B184601F06CFCF2
:103E5000786409E0FB6810221A63FB681B68B96B81
:103E6000184601F03FFC78647B6C002B12D0FB6895
:103E70001B687D4A9A63FB689A6B7B6C1A43FB68EC
:103E80009A63FB68012283F83420FB6800221A63DE
:103E90000123FDE0FB69FB6365E0FB681B685B6B6E
:103EA00003F48043002B40D0FB6B002B3DD000235C
:103EB0003B6437E07B6B1B787B617B6B01337B63FF
:103EC000FB6B013BFB637B6B1B781A027B69134323
:103ED0007B617B6B01337B63FB6B013BFB637B6B28
:103EE0001B781A047B6913437B617B6B01337B6313
:103EF000FB6B013BFB637B6B1B781A067B691343EF
:103F00007B617B6B01337B63FB6B013BFB63FB687A
:103F10001B6807F114021146184601F0D9FA3B6CF0
:103F200001333B643B6C072BC4D9FDF727FB0246EA
:103F30003B6BD31A3A6D9A4202D93B6D002B12D1DA
:103F4000FB681B68484A9A63FB689A6B7B6C1A4350
:103F5000FB689A63FB68012283F83420FB68002227
:103F60001A63032394E0FB681B685A6B40F21A3310
:103F70001340002B91D0FB681B685B6B03F48073CC
:103F8000002B22D03B68012B1FD9FB685B6C032BF5
:103F90001BD0FB681B68184601F0E8FB78647B6C5B
:103FA000002B12D0FB681B682F4A9A63FB689A6B40
:103FB0007B6C1A43FB689A63FB68012283F8342008
:103FC000FB6800221A63012362E0FB681B685B6BDD
:103FD00003F00803002B12D0FB681B68224A9A6387
:103FE000FB689B6B43F00802FB689A63FB68012245
:103FF00083F83420FB6800221A63012348E0FB6841
:104000001B685B6B03F00203002B12D0FB681B687C
:10401000154A9A63FB689B6B43F00202FB689A6344
:10402000FB68012283F83420FB6800221A63012315
:104030002EE0FB681B685B6B03F01003002B15D0B0
:10404000FB681B68084A9A63FB689B6B43F010028D
:10405000FB689A63FB68012283F83420FB68002226
:104060001A63012314E000BFFF054000FB681B68D2
:1040700040F23A529A63FB68012283F8342000230D
:1040800006E0FB689B6B43F00052FB689A630123D8
:1040900018464837BD4680BD80B483B000AF786015
:1040A00039607B685B6E9B0FDAB23B681A707B6885
:1040B0005B6E9B0EDBB203F00F03DAB23B685A7003
:1040C0007B685B6E1B0EDBB203F00303DAB23B6866
:1040D0009A707B685B6E1B0CDAB23B68DA707B68A7
:1040E0005B6E1B0ADAB23B681A717B685B6EDAB2F0
:1040F0003B685A717B689B6E1B0D9AB23B68DA80F5
:104100007B689B6E1B0CDBB203F00F03DAB23B68DB
:104110001A727B689B6EDB0BDBB203F00103DAB231
:104120003B685A727B689B6E9B0BDBB203F001030A
:10413000DAB23B689A727B689B6E5B0BDBB203F072
:104140000103DAB23B68DA727B689B6E1B0BDBB251
:1041500003F00103DAB23B681A733B6800225A731A
:104160007B685B6C002B63D17B689B6E9A0040F68A
:10417000FC7313407A68D26E920F1A433B681A613F
:104180007B68DB6EDB0EDBB203F00703DAB23B6861
:104190001A757B68DB6E1B0EDBB203F00703DAB225
:1041A0003B685A757B68DB6E5B0DDBB203F007037F
:1041B000DAB23B689A757B68DB6E9B0CDBB203F06E
:1041C0000703DAB23B68DA757B68DB6EDB0BDBB2C8
:1041D00003F00703DAB23B681A763B681B695A1C86
:1041E0007B685A653B681B7EDBB203F00703023332
:1041F000012202FA03F37A68526D02FB03F27B6834
:104200005A653B681B7ADBB203F00F0301229A4028
:104210007B689A657B685B6D7A68926D520A02FBD7
:1042200003F27B68DA657B684FF400721A6631E04E
:104230007B685B6C012B1DD17B689B6E1B0403F4B8
:104240007C127B68DB6E1B0C1A433B681A613B686F
:104250001B6901339A027B685A657B685A6D7B68DB
:10426000DA657B684FF400729A657B689A6D7B68AB
:104270001A660FE07B681B68584A9A637B689B6BE1
:1042800043F080527B689A637B68012283F8342074
:1042900001239DE07B68DB6E9B0BDBB203F0010327
:1042A000DAB23B685A767B68DB6EDB09DBB203F07F
:1042B0007F03DAB23B689A767B68DB6EDBB203F091
:1042C0007F03DAB23B68DA767B681B6FDB0FDAB20A
:1042D0003B681A777B681B6F5B0FDBB203F003034D
:1042E000DAB23B685A777B681B6F9B0EDBB203F038
:1042F0000703DAB23B689A777B681B6F9B0DDBB2D2
:1043000003F00F03DAB23B68DA777B681B6F5B0D53
:10431000DBB203F00103DAB23B6883F820203B688C
:10432000002283F821207B681B6F1B0CDBB203F09B
:104330000103DAB23B6883F822207B681B6FDB0B3A
:10434000DBB203F00103DAB23B6883F823207B6819
:104350001B6F9B0BDBB203F00103DAB23B6883F8FF
:1043600024207B681B6F5B0BDBB203F00103DAB226
:104370003B6883F825207B681B6F1B0BDBB203F0C7
:104380000103DAB23B6883F826207B681B6F9B0A27
:10439000DBB203F00303DAB23B6883F827207B68C3
:1043A0001B6F1B0ADBB203F00303DAB23B6883F82E
:1043B00028207B681B6F5B08DBB203F07F03DAB257
:1043C0003B6883F829203B68012283F82A200023D8
:1043D00018460C37BD465DF8047B7047FF0540006A
:1043E00080B483B000AF786039607B685A6C3B68FA
:1043F0001A607B689A6C3B685A607B68DA6C3B6831
:104400009A607B681A6D3B68DA607B685A6D3B681E
:104410001A617B689A6D3B685A617B68DA6D3B680C
:104420009A617B681A6E3B68DA61002318460C3784
:10443000BD465DF8047B704780B586B000AF7860FC
:104440000023FB6007F10C031946786800F070F94F
:1044500078617B69002B05D07B689A6B7B691A4376
:104460007B689A63FB685B0A03F00F033B613B695F
:1044700018461837BD4680BDB0B594B004AF78601B
:104480000123FB817B681B68184601F041F8034655
:10449000002B02D14FF08063B7E07B685B6C032B8D
:1044A0002FD07B681B68184601F027FAF863FB6B76
:1044B000002B01D0FB6BA8E07B681B68002118462D
:1044C00001F06BF802467B685A677B681B68042121
:1044D000184601F062F802467B689A677B681B68A1
:1044E0000821184601F059F802467B68DA677B68B4
:1044F0001B680C21184601F050F802467B68C3F88F
:1045000080207B685B6C032B0DD07B681B6807F1F8
:104510000E021146184601F02DFAF863FB6B002BD2
:1045200001D0FB6B71E07B685B6C032B36D0FB89A1
:104530001A467B681A657B681A687B681B6D1B04CA
:104540001946104601F0F7F9F863FB6B002B01D018
:10455000FB6B5AE07B681B680021184601F01DF8D0
:1045600002467B685A667B681B680421184601F086
:1045700014F802467B689A667B681B680821184617
:1045800001F00BF802467B68DA667B681B680C2139
:10459000184601F002F802467B681A677B681B68C0
:1045A0000421184600F0F9FF03461A0D7B68DA640F
:1045B00007F1100319467868FFF76EFD0346002BDC
:1045C00002D04FF0805320E07B6819687B681B6D38
:1045D0001B044FF000041A462346084601F0E8F891
:1045E000F863FB6B002B01D0FB6B0EE07B681D6852
:1045F0007B686C4603F1100207CA84E807000433A5
:104600000ECB284600F02CFF002318464037BD464D
:10461000B0BD000080B586B000AF78600023BB60FD
:1046200000237B6100233B617B681B68184601F017
:10463000E2F8F860FB68002B01D0FB6872E07B6851
:104640001B68184601F0F5F8F860FB68002B0DD0E8
:104650007B6800229A647B681B68184601F0CBF8DF
:10466000F860FB68002B04D0FB685BE07B680122EC
:104670009A647B689B6C012B37D17B681B68002197
:10468000184601F0F5F8F860FB68002B2DD04FF0CC
:10469000805347E07B681B680021184601F0E8F86A
:1046A000F860FB68002B01D0FB683BE07B681B686F
:1046B0001E49184601F0FEF8F860FB68002B02D096
:1046C0004FF080532EE07B681B680021184600F0F5
:1046D00064FF78617B69DB0F012B01D1012300E0CE
:1046E00000233B61BB680133BB60BB684FF6FE72C1
:1046F000934202D83B69002BCCD0BB684FF6FE72C8
:10470000934202D94FF080730CE07B6903F0804341
:10471000002B03D07B6801225A6402E07B680022F0
:104720005A64002318461837BD4680BD000010C1EA
:1047300080B584B000AF786039603B68002B02D14F
:104740004FF0006318E07B681A687B681B6D1B04E0
:104750001946104601F02FF9F860FB68002B01D0D4
:10476000FB6809E07B681B680021184600F015FF14
:1047700002463B681A60002318461037BD4680BDCC
:1047800080B582B000AF786039607B68002B01D1C2
:10479000012325E07B6893F82C30DBB2002B06D197
:1047A0007B68002283F82D207868FCF76DF87B6821
:1047B000022283F82C207B681A687B680433194630
:1047C000104600F009FD7B6818687B685B681A4634
:1047D000396800F074FD7B68012283F82C200023E7
:1047E00018460837BD4680BD80B582B000AF7860FE
:1047F0007B6893F82C30DBB2022B01D1022310E04E
:104800007B68022283F82C207B681A687B685B68CF
:104810001946104600F0D2FD7B68012283F82C2057
:10482000002318460837BD4680BD80B584B000AF70
:10483000F860B9607A60FB6893F82C30DBB2022B29
:1048400001D1022318E0FB68022283F82C20FB68C8
:104850001B687A68B968184600F0C6FDBB681B681B
:10486000022B04D1FB68052283F82C2003E0FB68AF
:10487000012283F82C20002318461037BD4680BD46
:1048800080B582B000AF78607B68002B01D1012336
:104890003FE07B6893F83930DBB2002B06D17B68B0
:1048A000002283F838207868FCF790FD7B6824228A
:1048B00083F839207B681B68DA687B681B6822F400
:1048C0000052DA60786800F00BF97B681B681A699F
:1048D0007B681B6822F490421A617B681B685A69E6
:1048E0007B681B6822F02A025A617B681B68DA68C1
:1048F0007B681B6842F40052DA607B680022DA634E
:104900007B68202283F839207B68202283F83A20B4
:10491000002318460837BD4680BD80B588B002AF79
:10492000F860B9603B601346FB8000237B61FB6845
:1049300093F83930DBB2202B40F08380BB68002B2A
:1049400002D0FB88002B01D101237BE0FB6893F8A8
:104950003830012B01D1022374E0FB68012283F877
:104960003820FB680022DA63FB68212283F83920B3
:10497000FCF704FE7861FB68FA889A84FB68FA8881
:10498000DA84FB68002283F8382042E0FB68DB8C85
:104990009BB2013B9AB2FB68DA84FB689B68B3F573
:1049A000805F22D13B6800937B6900228021F868F8
:1049B00000F04CF80346002B01D0032342E0BB6813
:1049C0003B613B691B881A46FB681B68C2F30802FF
:1049D0005A60FB681B69002B03D1BB680233BB60C4
:1049E00017E0BB680133BB6013E03B6800937B6951
:1049F00000228021F86800F029F80346002B01D03E
:104A000003231FE0BB685A1CBA601A78FB681B6856
:104A10005A60FB68DB8C9BB2002BB7D13B680093DC
:104A20007B6900224021F86800F010F80346002B53
:104A300001D0032306E0FB68202283F839200023FD
:104A400000E0022318461837BD4680BD80B584B00B
:104A500000AFF860B9603B601346FB712CE0BB69A6
:104A6000B3F1FF3F28D0BB69002B07D0FCF786FDD0
:104A700002463B68D31ABA699A421DD2FB681B688A
:104A8000DA68FB681B6822F4D072DA60FB681B6886
:104A90005A69FB681B6822F001025A61FB682022F8
:104AA00083F83920FB68202283F83A20FB68002233
:104AB00083F8382003230FE0FB681B681A68BB6883
:104AC0001340BA689A420CBF01230023DBB21A4696
:104AD000FB799A42C3D0002318461037BD4680BDEB
:104AE0002DE9F04F85B000AF78607B681B681B69CB
:104AF00023F440517B68DA687B681B680A431A61BB
:104B00007B689A687B681B691A437B685B691A43F8
:104B10007B68DB691343FB607B681B68DB6823F4FD
:104B2000164323F00C037A681268F9680B43D360CC
:104B30007B681B685B6923F440717B689A697B68BA
:104B40001B680A435A617B68DB69B3F5004F40F08C
:104B50008B817B681B68C14A934205D07B681B68C8
:104B6000BF4A934240F0BD80FEF798FCB860BB6836
:104B70001D464FF00006A846B14618EB080349EB66
:104B800009049846A14618EB050849EB06094FF0C1
:104B900000014FF000024FEAC90242EA58724FEAA0
:104BA000C8018846914618EB050049EB06017B6871
:104BB0005B681D464FF000066B1946EB06041A466B
:104BC0002346FBF765FB03460C461A46A54BA3FBA1
:104BD00002235B094FEA0318BB681D464FF000062D
:104BE000A946B24619EB09034AEB0A049946A246C4
:104BF00019EB05094AEB060A4FF000014FF00002DD
:104C00004FEACA0242EA59724FEAC90189469246FE
:104C100019EB05004AEB06017B685B681D464FF007
:104C200000066B1946EB06041A462346FBF730FBD9
:104C300003460C461A468B4BA3FB02135B09642107
:104C400001FB03F3D31ADB003233864AA2FB0323B2
:104C50005B095B0003F4F8739844BB681D464FF092
:104C60000006A946B24619EB09034AEB0A04994625
:104C7000A24619EB05094AEB060A4FF000014FF076
:104C800000024FEACA0242EA59724FEAC901894654
:104C9000924619EB05004AEB06017B685B681D46EE
:104CA0004FF000066B1946EB06041A462346FBF745
:104CB000EFFA03460C461A466A4BA3FB02135B0944
:104CC000642101FB03F3D31ADB003233654AA2FBF4
:104CD00003235B0903F007027B681B6842449A6068
:104CE0006FE2FEF7C7FBB860BB681D464FF00006D9
:104CF000A846B14618EB080349EB09049846A146BB
:104D000018EB050849EB06094FF000014FF00002CF
:104D10004FEAC90242EA58724FEAC80188469146F2
:104D200018EB050049EB06017B685B681D464FF0F8
:104D300000066B1946EB06041A462346FBF7A8FA51
:104D400003460C461A46474BA3FB02235B094FEA76
:104D50000318BB681D464FF00006A946B24619EB82
:104D600009034AEB0A049946A24619EB05094AEBE6
:104D7000060A4FF000014FF000024FEACA0242EA71
:104D800059724FEAC9018946924619EB05004AEB70
:104D900006017B685B681D464FF000066B1946EB09
:104DA00006041A462346FBF773FA03460C461A46D6
:104DB0002C4BA3FB02135B09642101FB03F3D31A01
:104DC000DB003233274AA2FB03235B095B0003F4B9
:104DD000F8739844BB681D464FF00006A946B246DA
:104DE00019EB09034AEB0A049946A24619EB050997
:104DF0004AEB060A4FF000014FF000024FEACA02E8
:104E000042EA59724FEAC9018946924619EB0500F8
:104E10004AEB06017B685B681D464FF000066B1984
:104E200046EB06041A462346FBF732FA03460C46C5
:104E30001A460C4BA3FB02135B09642101FB03F32D
:104E4000D31ADB003233074AA2FB03235B0903F0CA
:104E500007027B681B6842449A60B2E1001001407F
:104E6000001401401F85EB517B681B68D74A9342B1
:104E700005D07B681B68D64A934240F0D180FEF78C
:104E80000DFBB860BB689A464FF0000BD046D94680
:104E900018EB080349EB09049846A14618EB0A08E9
:104EA00049EB0B094FF000014FF000024FEAC90235
:104EB00042EA58724FEAC801884691461AEB080543
:104EC0004BEB09067B685B6819464FF000024FF018
:104ED00000034FF00004940044EA91748B001A46DA
:104EE000234628463146FBF7D3F903460C461A46BB
:104EF000B84BA3FB02235B094FEA0318BB689B4630
:104F00004FF0000CD946E24619EB09034AEB0A04BC
:104F10009946A24619EB0B094AEB0C0A4FF0000127
:104F20004FF000024FEACA0242EA59724FEAC90141
:104F3000894692461BEB09054CEB0A067B685B68C9
:104F400019464FF000024FF000034FF000049400A8
:104F500044EA91748B001A46234628463146FBF7F3
:104F600097F903460C461A469A4BA3FB02135B09BA
:104F7000642101FB03F3D31A1B013233954AA2FBD0
:104F800003235B0903F0F0039844BB689B464FF092
:104F9000000CD946E24619EB09034AEB0A0499468C
:104FA000A24619EB0B094AEB0C0A4FF000014FF037
:104FB00000024FEACA0242EA59724FEAC901894621
:104FC00092461BEB09054CEB0A067B685B681946A9
:104FD0004FF000024FF000034FF00004940044EA49
:104FE00091748B001A46234628463146FBF750F948
:104FF00003460C461A46774BA3FB02135B09642158
:1050000001FB03F3D31A1B013233724AA2FB0323C1
:105010005B0903F00F027B681B6842449A60D0E092
:10502000FEF728FAB860BB689A464FF0000BD046EE
:10503000D94618EB080349EB09049846A14618EB3A
:105040000A0849EB0B094FF000014FF000024FEA4C
:10505000C90242EA58724FEAC801884691461AEBE3
:1050600008054BEB09067B685B6819464FF00002A8
:105070004FF000034FF00004940044EA91748B0059
:105080001A46234628463146FBF702F903460C46EA
:105090001A46504BA3FB02235B094FEA0318BB6877
:1050A0009B464FF0000CD946E24619EB09034AEB48
:1050B0000A049946A24619EB0B094AEB0C0A4FF079
:1050C00000014FF000024FEACA0242EA59724FEA69
:1050D000C901894692461BEB09054CEB0A067B6821
:1050E0005B6819464FF000024FF000034FF00004D8
:1050F000940044EA91748B001A46234628463146B0
:10510000FBF7C6F803460C461A46324BA3FB0213C4
:105110005B09642101FB03F3D31A1B0132332D4ACF
:10512000A2FB03235B0903F0F0039844BB689B4692
:105130004FF0000CD946E24619EB09034AEB0A048A
:105140009946A24619EB0B094AEB0C0A4FF00001F5
:105150004FF000024FEACA0242EA59724FEAC9010F
:10516000894692461BEB09054CEB0A067B685B6897
:1051700019464FF000024FF000034FF00004940076
:1051800044EA91748B001A46234628463146FBF7C1
:105190007FF803460C461A460E4BA3FB02135B092D
:1051A000642101FB03F3D31A1B013233094AA2FB2A
:1051B00003235B0903F00F027B681B6842449A607B
:1051C000FFE700BF1437BD46BDE8F08F0010014077
:1051D000001401401F85EB5180B485B000AF7860AA
:1051E00039600023FB600023BB603B681B68012B18
:1051F00029D07B681B68FB60FB6823F4FF4323F026
:105200007F03FB603B685A683B689B681A433B68B6
:10521000DB681A433B681B691A433B685B691A43A6
:105220003B689B691A433B68DB691A433B681B6A0E
:105230001A433B685B6A1343FA681343FB607B685D
:10524000FA681A6034E07B681B68FB60FB6823F433
:10525000F843FB603B68DA693B681B6A1A433B68AA
:105260005B6A1343FA681343FB607B685B68BB604F
:10527000BB6823F4FF4323F07F03BB603B685A689D
:105280003B689B681A433B68DB681A433B681B69B1
:105290001A433B685B691A433B689B691343BA68CE
:1052A0001343BB607B68FA681A607B68BA685A600F
:1052B000002318461437BD465DF8047B704780B460
:1052C00087B000AFF860B9607A6000237B6100238B
:1052D0003B617B68012B2ED0FB689B687B617B69FF
:1052E00003F070437B61BB681B685A1EBB685B6838
:1052F000013B1B011A43BB689B68013B1B021A431D
:10530000BB68DB68013B1B031A43BB681B69013B9D
:105310001B041A43BB685B69013B1B051A43BB684E
:105320009B69013B1B0613437A6913437B61FB684E
:105330007A699A603BE0FB689B687B617B6923F438
:10534000700323F470437B61BB68DB68013B1A0385
:10535000BB685B69013B1B0513437A6913437B619F
:10536000FB68DB683B613B6903F070433B61BB68F2
:105370001B685A1EBB685B68013B1B011A43BB6874
:105380009B68013B1B021A43BB681B69013B1B0462
:105390001A43BB689B69013B1B0613433A691343DD
:1053A0003B61FB687A699A60FB683A69DA600023BE
:1053B00018461C37BD465DF8047B704780B483B047
:1053C00000AF786039607B683A6853F8223023F484
:1053D00000717B683A6843F82210002318460C37A6
:1053E000BD465DF8047B704780B586B000AFF860BD
:1053F000B9607A6000233B6100237B61BB681A6857
:10540000BB685B681A43BB689B68013B5B011A433E
:10541000BB68DB685B0213433B613A69FB681A6156
:10542000FCF7ACF8786110E07B68B3F1FF3F0CD07B
:105430007B68002B07D0FCF7A1F802467B69D31AE2
:105440007A689A4201D2032306E0FB689B6903F065
:105450002003202BE8D0002318461837BD4680BD16
:1054600084B080B485B000AF786007F11C0080E89C
:105470000E000023FB60FA693B6A1A437B6A1A43F9
:10548000BB6A1A43FB6A1A433B6B1343FA68134324
:10549000FB607B685B6823F4FD4323F07F03FA68BD
:1054A0001A437B685A60002318461437BD465DF8DE
:1054B000047B04B0704780B483B000AF78607B6831
:1054C000D3F8803018460C37BD465DF8047B704732
:1054D00080B483B000AF786039603B681A687B683D
:1054E000C3F88020002318460C37BD465DF8047BC6
:1054F000704780B582B000AF78607B6803221A6085
:105500000220FCF747F8002318460837BD4680BD47
:1055100080B483B000AF78607B681B6803F003033E
:1055200018460C37BD465DF8047B704780B485B0E3
:1055300000AF786039600023FB603B681A687B68C5
:105540009A603B685A683B689B681A433B68DB6813
:105550001A433B681B691343FA681343FB607B687B
:10556000DB6823F47F6323F00F03FA681A437B6838
:10557000DA60002318461437BD465DF8047B704797
:1055800080B483B000AF78607B681B69DBB21846DB
:105590000C37BD465DF8047B704780B485B000AF22
:1055A000786039607B6814331A463B681344FB60AB
:1055B000FB681B6818461437BD465DF8047B7047CE
:1055C00080B485B000AF786039600023FB603B6831
:1055D0001A687B685A623B685A687B689A623B68C3
:1055E0009A683B68DB681A433B681B691A433B684F
:1055F0005B691343FA681343FB607B68DB6A23F043
:10560000F702FB681A437B68DA62002318461437F6
:10561000BD465DF8047B704780B588B000AF786008
:1056200039603B68BB601023FB6040233B61002373
:105630007B614FF48063BB6107F10803194678680A
:10564000FFF774FF41F288321021786800F0FEF90C
:10565000F861FB6918462037BD4680BD80B588B02B
:1056600000AF786039603B68BB601123FB6040236A
:105670003B6100237B614FF48063BB6107F108034A
:1056800019467868FFF752FF41F288321121786895
:1056900000F0DCF9F861FB6918462037BD4680BD93
:1056A00080B588B000AF786039603B68BB6012237A
:1056B000FB6040233B6100237B614FF48063BB614F
:1056C00007F1080319467868FFF730FF41F2883286
:1056D0001221786800F0BAF9F861FB6918462037A2
:1056E000BD4680BD80B588B000AF786039603B684A
:1056F000BB601823FB6040233B6100237B614FF4B8
:105700008063BB6107F1080319467868FFF70EFF55
:1057100041F288321821786800F098F9F861FB6945
:1057200018462037BD4680BD80B588B000AF786090
:1057300039603B68BB601923FB6040233B61002359
:105740007B614FF48063BB6107F1080319467868F9
:10575000FFF7ECFE41F288321921786800F076F903
:10576000F861FB6918462037BD4680BD80B588B01A
:1057700000AF78600023BB600C23FB6040233B61DB
:1057800000237B614FF48063BB6107F10803194676
:105790007868FFF7CBFE054A0C21786800F056F9CF
:1057A000F861FB6918462037BD4680BD00E1F5056C
:1057B00080B58AB000AFF860C7E900233B683B6161
:1057C00007237B614023BB610023FB614FF48063AF
:1057D0003B6207F110031946F868FFF7A7FE41F294
:1057E00088320721F86800F031F978627B6A184640
:1057F0002837BD4680BD80B588B000AF78600023F3
:10580000BB600023FB6000233B6100237B614FF4FE
:105810008063BB6107F1080319467868FFF786FECD
:10582000786800F0EBF8F861FB6918462037BD4650
:1058300080BD80B588B000AF78604FF4D573BB6091
:105840000823FB6040233B6100237B614FF48063AE
:10585000BB6107F1080319467868FFF767FE7868AF
:1058600000F0D4FAF861FB6918462037BD4680BDC8
:1058700080B588B000AF786039603B68BB60372383
:10588000FB6040233B6100237B614FF48063BB617D
:1058900007F1080319467868FFF748FE41F288329D
:1058A0003721786800F0D2F8F861FB691846203794
:1058B000BD4680BD80B588B000AF786039603B6878
:1058C00043F0004343F48013BB602923FB60402373
:1058D0003B6100237B614FF48063BB6107F10803E8
:1058E00019467868FFF722FE786800F0E1F9F86160
:1058F000FB6918462037BD4680BD80B588B000AF33
:1059000078600023BB600223FB60C0233B6100235F
:105910007B614FF48063BB6107F108031946786827
:10592000FFF704FE786800F07DF9F861FB6918461E
:105930002037BD4680BD80B588B000AF7860396043
:105940003B68BB600923FB60C0233B6100237B6194
:105950004FF48063BB6107F1080319467868FFF7CD
:10596000E5FD786800F05EF9F861FB6918462037BC
:10597000BD4680BD80B588B000AF78603960002337
:10598000BB600323FB6040233B6100237B614FF43A
:105990008063BB6107F1080319467868FFF7C6FD0D
:1059A0003A680321786800F0BDF9F861FB69184690
:1059B0002037BD4680BD80B588B000AF78603960C3
:1059C0003B68BB600D23FB6040233B6100237B6190
:1059D0004FF48063BB6107F1080319467868FFF74D
:1059E000A5FD41F288320D21786800F02FF8F861AA
:1059F000FB6918462037BD4680BD000090B482B0D8
:105A000000AF78600F4B1B680F4AA2FB03235B0AB1
:105A100041F2883202FB03F423465C1E002B02D1C4
:105A20004FF0004309E07B685B6B03F08003002BC1
:105A3000F2D07B68C5229A63002318460837BD461A
:105A400090BC704704000020D34D621090B587B021
:105A500000AFF8600B467A60FB726F4B1B686F4AB1
:105A6000A2FB03235B0A7A6802FB03F423465C1E55
:105A7000002B02D14FF00043C9E0FB685B6B7B61F8
:105A80007B6903F04503002BF0D07B6903F40063CE
:105A9000002BEBD1FB685B6B03F00403002B04D0FD
:105AA000FB6804229A630423B1E0FB685B6B03F09C
:105AB0000103002B04D0FB6801229A630123A6E0B6
:105AC000FB68C5229A63F868FFF75AFD03461A4639
:105AD000FB7A934201D0012399E00021F868FFF797
